:100000000C9434000C943E000C943E000C943E0082
:100010000C943E000C943E000C943E000C943E0068
:100020000C943E000C943E000C943E000C943E0058
:100030000C943E000C943E000C943E000C943E0048
:100040000C943E000C943E000C943E000C943E0038
:100050000C943E00AA00B000BB00C600D100DC003A
:10006000E700F200FD00080111241FBECFE5D8E033
:10007000DEBFCDBF0E943F010C9412020C94000021
:10008000CF93C62F813051F440E064E00E946701B5
:1000900041E064E081E00E94D0010CC0823051F464
:1000A00040E062E081E00E94670141E062E081E0BF
:1000B0000E94D001C13059F440E068E081E00E9424
:1000C000670141E068E081E00E94D0010CC0C230CD
:1000D00051F440E068E081E00E94670140E068E0A0
:1000E00081E00E94D001CF910895813051F440E029
:1000F00064E00E94670140E064E081E00E94D0017A
:100100000895823051F440E062E081E00E9467018E
:1001100040E062E081E00E94D0010895CF93C62FB5
:10012000813031F440E060EF80E00E94670107C059
:10013000823029F440E060EF80E00E9467018C2F5C
:1001400090E08A30910508F06DC0FC01E65DFF4F3C
:100150000C940C0240E060EF80E00E94D00162C08D
:1001600040E060EE80E00E94D00141E060E180E08C
:100170000E94D00157C040E060ED80E00E94D001B5
:1001800041E060E280E00E94D0014CC040E060ECC1
:1001900080E00E94D00141E060E380E00E94D00155
:1001A00041C040E060EB80E00E94D00141E060E4AB
:1001B00080E00E94D00136C040E060EA80E00E940A
:1001C000D00141E060E580E00E94D0012BC040E01A
:1001D00060E980E00E94D00141E060E680E00E949A
:1001E000D00120C040E060E880E00E94D00141E002
:1001F00060E780E00E94D00115C040E060E780E049
:100200000E94D00141E060E880E00E94D0010AC075
:1002100040E060E680E00E94D00141E060E980E0DB
:100220000E94D001CF91089561E081E00E944000DA
:1002300061E082E00E94400041E068E080E00E94CE
:10024000D0012FEF81EE94E0215080409040E1F703
:1002500000C0000081E00E94750082E00E947500ED
:1002600040E068E080E00E94D0012FEF81EE94E052
:10027000215080409040E1F700C00000089540E028
:1002800068E080E00E94670161E081E00E94400038
:1002900061E082E00E94400060E082E00E948E0007
:1002A000C0E0D0E00EC06C2F81E00E948E002FEFE6
:1002B00083ED90E3215080409040E1F700C00000C2
:1002C0002196CA30D1057CF30E941401FDCF813004
:1002D000F9F030F08230A1F1833009F449C008957B
:1002E000413041F018F0423051F008958AB3682B44
:1002F0006ABB08958AB3609568236ABB08958AB380
:10030000962F909589238ABB8BB3682B6BBB08957E
:10031000413041F018F0423051F0089587B3682B16
:1003200067BB089587B36095682367BB089587B35B
:10033000962F9095892387BB88B3682B68BB089557
:10034000413041F018F0423051F0089584B3682BE9
:1003500064BB089584B36095682364BB089584B337
:10036000962F9095892384BB85B3682B65BB089530
:10037000413041F018F0423051F0089581B3682BBC
:1003800061BB089581B36095682361BB089581B313
:10039000962F9095892381BB82B3682B62BB089509
:1003A000813099F028F08230E9F0833041F10895EE
:1003B000442331F0413079F58BB3682B6BBB089542
:1003C0008BB3609568236BBB0895442331F04130B3
:1003D00011F588B3682B68BB089588B360956823CE
:1003E00068BB0895442331F04130A9F485B3682BEC
:1003F00065BB089585B36095682365BB0895442364
:1004000031F0413041F482B3682B62BB089582B36E
:100410006095682362BB0895EE0FFF1F0590F4916D
:08042000E02D0994F894FFCFD0
:00000001FF
