:100000000C942A000C943C000C943C000C943C0092
:100010000C943C000C943C000C943C000C943C0070
:100020000C943C000C943C000C94B2010C94D9014B
:100030000C943C000C943C000C943C000C943C0050
:100040000C943C000C943C000C943C000C943C0040
:100050000C943C0011241FBECFE5D8E0DEBFCDBF1D
:1000600020E0A0E6B0E001C01D92A536B207E1F79E
:100070000E943E000C9400020C94000040E061E0FD
:1000800083E00E94A40040E060E882E00E94A400B7
:1000900040E064E082E00E94A40041E060E882E089
:1000A0000E940D0140E064E082E00E940D0140E00A
:1000B00061E083E00E940D0164E682E00E949D0100
:1000C00065E082E00E94610164E682E00E949D0199
:1000D00060E882E00E94490164E082E00E944901F8
:1000E0002FEF83E294EF215080409040E1F700C071
:1000F00000006AEF82E00E949D0160E882E00E94B9
:10010000490164E082E00E9449012FEF83E294EF0D
:10011000215080409040E1F700C0000062E382E09F
:100120000E949D0160E882E00E94490164E082E053
:100130000E9449012FEF83E294EF215080409040CC
:10014000E1F700C00000C0CF8130F9F030F082301C
:10015000A1F1833009F449C00895413041F018F00D
:10016000423051F008958AB3682B6ABB08958AB370
:10017000609568236ABB08958AB3962F909589236A
:100180008ABB8BB3682B6BBB0895413041F018F0EC
:10019000423051F0089587B3682B67BB089587B349
:1001A0006095682367BB089587B3962F9095892340
:1001B00087BB88B3682B68BB0895413041F018F0C5
:1001C000423051F0089584B3682B64BB089584B322
:1001D0006095682364BB089584B3962F9095892316
:1001E00084BB85B3682B65BB0895413041F018F09E
:1001F000423051F0089581B3682B61BB089581B3FB
:100200006095682361BB089581B3962F90958923EB
:1002100081BB82B3682B62BB0895813099F028F0CE
:100220008230E9F0833041F10895442331F04130C8
:1002300079F58BB3682B6BBB08958BB360956823FE
:100240006BBB0895442331F0413011F588B3682B1E
:1002500068BB089588B36095682368BB08954423FC
:1002600031F04130A9F485B3682B65BB089585B39F
:100270006095682365BB0895442331F0413041F413
:1002800082B3682B62BB089582B36095682362BB1A
:100290000895813051F028F0823059F0833069F0B0
:1002A00008958BB368276BBB089588B3682768BB34
:1002B000089585B3682765BB089582B3682762BB3C
:1002C0000895609360008230B1F018F4813031F00D
:1002D00026C08330B9F08430E1F021C083B78F7B32
:1002E00083BF83B7877F83BF83B78F7E83BF83B787
:1002F0008F7D83BF14C083B7806483BF83B7877F3C
:1003000083BF0DC083B78F7B83BF83B7886083BFF4
:1003100006C083B7806483BF83B7886083BF8FB70D
:1003200080688FBF40E068E081E00E94A40093B73E
:1003300080916000892B83BF0895823041F483B798
:100340008F7E83BF83B7806283BF6CBF0895833085
:1003500041F483B7806183BF83B7806283BF6095B8
:100360006CBF08951F920F920FB60F9211242F9316
:100370003F934F935F936F937F938F939F93AF932D
:10038000BF93EF93FF93E0916100F09162000995B4
:10039000FF91EF91BF91AF919F918F917F916F915D
:1003A0005F914F913F912F910F900FBE0F901F9033
:1003B00018951F920F920FB60F9211242F933F930F
:1003C0004F935F936F937F938F939F93AF93BF935D
:1003D000EF93FF93E0916300F09164000995FF9122
:1003E000EF91BF91AF919F918F917F916F915F91AD
:1003F0004F913F912F910F900FBE0F901F90189526
:04040000F894FFCF9E
:00000001FF
