S0110000455854495F323032322E73726563B4
S11300000C942A000C94B8000C94DF000C940601A4
S11300100C943C000C943C000C943C000C943C006C
S11300200C943C000C943C000C943C000C943C005C
S11300300C943C000C943C000C943C000C943C004C
S11300400C943C000C943C000C943C000C943C003C
S11300500C943C0011241FBECFE5D8E0DEBFCDBF19
S113006020E0A0E6B0E001C01D92A636B207E1F799
S11300700E9437010C94D9010C9400009FB790683A
S11300809FBF813099F120F0823009F45DC008955A
S113009050936300409362008BB780648BBF6230DF
S11300A081F018F4613031F00895633089F06430E0
S11300B0B1F0089585B78E7F85BF85B78D7F85BFE5
S11300C0089585B7816085BF85B78D7F85BF089505
S11300D085B78E7F85BF85B7826085BF089585B754
S11300E0816085BF85B7826085BF089550936100A4
S11300F0409360008BB780688BBF623081F018F446
S1130100613031F00895633089F06430B1F00895BE
S113011085B78B7F85BF85B7877F85BF089585B7F2
S1130120846085BF85B7877F85BF089585B78B7F3A
S113013085BF85B7886085BF089585B7846085BF0E
S113014085B7886085BF0895509365004093640027
S11301508BB780628BBF633019F0643029F0089547
S113016084B78F7B84BF089584B7806484BF089567
S11301701F920F920FB60F9211242F933F934F9318
S11301805F936F937F938F939F93AF93BF93EF93FB
S1130190FF93E0916200F09163000995FF91EF9164
S11301A0BF91AF919F918F917F916F915F914F918B
S11301B03F912F910F900FBE0F901F9018951F9293
S11301C00F920FB60F9211242F933F934F935F9387
S11301D06F937F938F939F93AF93BF93EF93FF930B
S11301E0E0916000F09161000995FF91EF91BF915A
S11301F0AF919F918F917F916F915F914F913F91BB
S11302002F910F900FBE0F901F9018951F920F9271
S11302100FB60F9211242F933F934F935F936F93D5
S11302207F938F939F93AF93BF93EF93FF93E0914B
S11302306000F09161000995FF91EF91BF91AF913A
S11302409F918F917F916F915F914F913F912F91EA
S11302500F900FBE0F901F90189564E082E00E94EB
S1130260C101089561E080E00E94C101089540E069
S113027064E082E00E94580140E061E080E00E9476
S1130280580142E064E083E00E94580142E068E0E3
S113029083E00E9458014DE251E063E080E00E9457
S11302A03E0042E351E062E081E00E943E00FFCF65
S11302B08130F9F030F08230A1F1833009F449C083
S11302C00895413041F018F0423051F008958AB356
S11302D0682B6ABB08958AB3609568236ABB089546
S11302E08AB3962F909589238ABB8BB3682B6BBBFB
S11302F00895413041F018F0423051F0089587B329
S1130300682B67BB089587B36095682367BB08951E
S113031087B3962F9095892387BB88B3682B68BBD6
S11303200895413041F018F0423051F0089584B3FB
S1130330682B64BB089584B36095682364BB0895F7
S113034084B3962F9095892384BB85B3682B65BBB2
S11303500895413041F018F0423051F0089581B3CE
S1130360682B61BB089581B36095682361BB0895D0
S113037081B3962F9095892381BB82B3682B62BB8E
S11303800895813051F028F0823059F0833069F0BB
S113039008958BB368276BBB089588B3682768BB3F
S11303A0089585B3682765BB089582B3682762BB47
S10903B00895F894FFCF4C
S9030000FC
