:100000000C9432000C9444000C9444000C94440072
:100010000C9444000C9444000C9444000C94440050
:100020000C9444000C9444000C9444000C94440040
:100030000C9444000C9444000C9444000C94440030
:100040000C9496000C9444000C9444000C944400CE
:100050000C9444006E00740078007C0080008400E2
:1000600088008C0011241FBECFE5D8E0DEBFCDBFD5
:1000700020E0A0E6B0E001C01D92A236B207E1F791
:100080000E94BD000C9483010C94000017B816B8B0
:1000900096B1906896B997B1906497B9813021F480
:1000A00087B1806287B904C0823011F487B187B903
:1000B00086B1682B66B90895DB0197B195FB2227BD
:1000C00020F997B1892B87B950E0FA013197E830D0
:1000D000F10528F5E65DFF4F0C947D0180B780BFE8
:1000E00086B1806486B91BC080B7806280BF17C0AC
:1000F00080B7806480BF13C080B7806680BF0FC0A8
:1001000080B7806880BF0BC080B7806A80BF07C09F
:1001100080B7806C80BF03C080B7806E80BF213005
:1001200021F485B190E08D939C9308951F920F92D6
:100130000FB60F9211242F933F934F935F936F93BA
:100140007F938F939F93AF93BF93EF93FF93E09130
:100150006000F09161000995FF91EF91BF91AF911F
:100160009F918F917F916F915F914F913F912F91CF
:100170000F900FBE0F901F901895CF93DF9300D074
:10018000CDB7DEB761E081E00E94460040E06FEF4E
:1001900082E00E94D80041E0BE016F5F7F4F80E0A7
:1001A0000E945C0041E0698182E00E944101F3CF3E
:1001B0008130F9F030F08230A1F1833009F449C088
:1001C0000895413041F018F0423051F008958AB35B
:1001D000682B6ABB08958AB3609568236ABB08954B
:1001E0008AB3962F909589238ABB8BB3682B6BBB00
:1001F0000895413041F018F0423051F0089587B32E
:10020000682B67BB089587B36095682367BB089523
:1002100087B3962F9095892387BB88B3682B68BBDB
:100220000895413041F018F0423051F0089584B300
:10023000682B64BB089584B36095682364BB0895FC
:1002400084B3962F9095892384BB85B3682B65BBB7
:100250000895413041F018F0423051F0089581B3D3
:10026000682B61BB089581B36095682361BB0895D5
:1002700081B3962F9095892381BB82B3682B62BB93
:100280000895813099F028F08230E9F0833041F10F
:100290000895442331F0413079F58BB3682B6BBB63
:1002A00008958BB3609568236BBB0895442331F0A8
:1002B000413011F588B3682B68BB089588B3609509
:1002C000682368BB0895442331F04130A9F485B315
:1002D000682B65BB089585B36095682365BB089559
:1002E000442331F0413041F482B3682B62BB08955E
:1002F00082B36095682362BB0895EE0FFF1F0590DF
:0A030000F491E02D0994F894FFCF6A
:00000001FF
