S00B000050574D2E7372656325
S11300000C942A000C9434000C9434000C943400A6
S11300100C9434000C9434000C9434000C9434008C
S11300200C9434000C9434000C9434000C9434007C
S11300300C9434000C9434000C9434000C9434006C
S11300400C9434000C9434000C9434000C9434005C
S11300500C94340011241FBECFE5D8E0DEBFCDBF21
S11300600E9436000C94F0000C94000063E080E0E1
S11300700E94A80068E780E00E94CF00FFCF813093
S1130080F9F030F08230A1F1833009F449C00895C9
S1130090413041F018F0423051F008958AB3682B92
S11300A06ABB08958AB3609568236ABB08958AB3CE
S11300B0962F909589238ABB8BB3682B6BBB0895CD
S11300C0413041F018F0423051F0089587B3682B65
S11300D067BB089587B36095682367BB089587B3AA
S11300E0962F9095892387BB88B3682B68BB0895A6
S11300F0413041F018F0423051F0089584B3682B38
S113010064BB089584B36095682364BB089584B385
S1130110962F9095892384BB85B3682B65BB08957E
S1130120413041F018F0423051F0089581B3682B0A
S113013061BB089581B36095682361BB089581B361
S1130140962F9095892381BB82B3682B62BB089557
S1130150CF93DF93D82FC62F40E068E081E00E9460
S11301603F00DD2319F0D13059F013C083B7806408
S113017083BF83B7886083BF83B7806283BF09C0AE
S113018083B78F7B83BF83B7886083BF83B7806364
S113019083BF83B7C82BC3BFDF91CF910895882352
S11301A079F0813089F008958CBF2FEF39E698E11A
S11301B0215030409040E1F700C000008F5F01C043
S11301C080E0681788F708956CBF2FEF39E688E15F
S11301D0215030408040E1F700C000006150F4CF6E
S10701E0F894FFCFBD
S9030000FC
