:100000000C942A000C9434000C9434000C943400AA
:100010000C9434000C9434000C9434000C94340090
:100020000C9434000C9434000C9434000C94340080
:100030000C9434000C9434000C9434000C94340070
:100040000C9434000C9434000C9434000C94340060
:100050000C94340011241FBECFE5D8E0DEBFCDBF25
:100060000E9436000C9461010C94000040E063E0B3
:1000700081E00E947E0042E060E882E00E947E0013
:1000800060E882E00E943B018823E1F041E061E00A
:1000900081E00E94E7002FEF81EE94E02150804044
:1000A0009040E1F700C0000061E081E00E94230180
:1000B0002FEF81EE94E0215080409040E1F700C0A6
:1000C0000000DECF41E062E081E00E94E7002FEF18
:1000D00081EE94E0215080409040E1F700C00000A4
:1000E00062E081E00E9423012FEF81EE94E0215035
:1000F00080409040E1F700C00000C2CF8130F9F0AD
:1001000030F08230A1F1833009F449C008954130C4
:1001100041F018F0423051F008958AB3682B6ABB61
:1001200008958AB3609568236ABB08958AB3962FB1
:10013000909589238ABB8BB3682B6BBB08954130A4
:1001400041F018F0423051F0089587B3682B67BB37
:10015000089587B36095682367BB089587B3962F8A
:100160009095892387BB88B3682B68BB089541307D
:1001700041F018F0423051F0089584B3682B64BB0D
:10018000089584B36095682364BB089584B3962F63
:100190009095892384BB85B3682B65BB0895413056
:1001A00041F018F0423051F0089581B3682B61BBE3
:1001B000089581B36095682361BB089581B3962F3C
:1001C0009095892381BB82B3682B62BB08958130EF
:1001D00099F028F08230E9F0833041F1089544230A
:1001E00031F0413049F48BB3862B8BBB05C08BB308
:1001F000962F909589238BBB442331F0413049F4ED
:1002000088B3862B88BB05C088B3962F9095892329
:1002100088BB442331F0413049F485B3862B85BB3C
:1002200005C085B3962F9095892385BB442331F073
:10023000413041F482B3682B62BB089582B360956C
:10024000682362BB0895813051F028F0823059F064
:10025000833069F008958BB368276BBB089588B32A
:10026000682768BB089585B3682765BB089582B386
:10027000682762BB0895813059F028F0823069F018
:10028000833081F014C089B3682399F081E0089528
:1002900086B3682381F081E0089583B3682369F011
:1002A00081E0089580B3682351F081E0089580E0F3
:1002B000089580E0089580E0089580E0089580E04A
:0602C0000895F894FFCF41
:00000001FF
