:100000000C942A000C943F000C943F000C943F0089
:100010000C943F000C943F000C943F000C943F0064
:100020000C943F000C943F000C943F000C943F0054
:100030000C943F000C943F000C943F000C943F0044
:100040000C943F000C943F000C943F000C943F0034
:100050000C943F0011241FBECFE5D8E0DEBFCDBF1A
:1000600010E0A0E6B0E0E2E7F4E002C005900D92F7
:10007000A836B107D9F70E9488010C9437020C9476
:100080000000CF93C82F40E064E081E00E94FB01B4
:1000900040E062E081E00E94FB014C2F441F4427B6
:1000A000441F60E880E00E94FB01C6FB442740F942
:1000B00060E480E00E94FB01C5FB442740F960E258
:1000C00080E00E94FB01C4FB442740F960E180E02E
:1000D0000E94FB0140E068E081E00E94FB0187ECA8
:1000E00090E00197F1F700C0000041E068E081E096
:1000F0000E94FB01C3FB442740F960E880E00E94B6
:10010000FB01C2FB442740F960E480E00E94FB0150
:10011000C1FB442740F960E280E00E94FB014C2FC4
:10012000417060E180E00E94FB0140E068E081E016
:100130000E94FB0187EC90E00197F1F700C00000FE
:1001400041E068E081E00E94FB01CF910895CF93E8
:10015000C82F40E064E081E00E94FB0141E062E0E2
:1001600081E00E94FB014C2F441F4427441F60E89C
:1001700080E00E94FB01C6FB442740F960E480E078
:100180000E94FB01C5FB442740F960E280E00E9429
:10019000FB01C4FB442740F960E180E00E94FB01C1
:1001A00040E068E081E00E94FB0187EC90E001976D
:1001B000F1F700C0000041E068E081E00E94FB012F
:1001C000C3FB442740F960E880E00E94FB01C2FBCA
:1001D000442740F960E480E00E94FB01C1FB442712
:1001E00040F960E280E00E94FB014C2F417060E129
:1001F00080E00E94FB0140E068E081E00E94FB019A
:1002000087EC90E00197F1F700C0000041E068E062
:1002100081E00E94FB01CF91089540E060EF80E013
:100220000E94920140E06EE081E00E94920141E074
:1002300068E081E00E94FB012FEF80E792E021500F
:1002400080409040E1F700C0000040E064E081E0C1
:100250000E94FB0140E062E081E00E94FB0140E07F
:1002600060E880E00E94FB0140E060E480E00E94E2
:10027000FB0141E060E280E00E94FB0140E060E1C0
:1002800080E00E94FB0140E068E081E00E94FB0109
:1002900087EC90E00197F1F700C0000041E068E0D2
:1002A00081E00E94FB018CE20E9441008FE99FE007
:1002B0000197F1F700C000008FE00E9441008FE934
:1002C0009FE00197F1F700C0000081E00E9441002B
:1002D0008FE39FE10197F1F700C0000086E00E94E4
:1002E00041008FE99FE00197F1F700C000000895F9
:1002F0000E94A7000895CF93DF93EC0103C00E94F2
:10030000A700219688818111FACFDF91CF910895BE
:100310000E940D0180E690E00E947B0180E20E9435
:100320007801FFCF8130F9F030F08230A1F18330D5
:1003300009F449C00895413041F018F0423051F0BD
:1003400008958AB3682B6ABB08958AB360956823C1
:100350006ABB08958AB3962F909589238ABB8BB385
:10036000682B6BBB0895413041F018F0423051F0DA
:10037000089587B3682B67BB089587B3609568239A
:1003800067BB089587B3962F9095892387BB88B361
:10039000682B68BB0895413041F018F0423051F0AD
:1003A000089584B3682B64BB089584B36095682373
:1003B00064BB089584B3962F9095892384BB85B33D
:1003C000682B65BB0895413041F018F0423051F080
:1003D000089581B3682B61BB089581B3609568234C
:1003E00061BB089581B3962F9095892381BB82B319
:1003F000682B62BB0895813099F028F08230E9F0D3
:10040000833041F10895442331F0413079F58BB3C5
:10041000682B6BBB08958BB3609568236BBB089505
:10042000442331F0413011F588B3682B68BB08953F
:1004300088B36095682368BB0895442331F0413048
:10044000A9F485B3682B65BB089585B360956823CF
:1004500065BB0895442331F0413041F482B3682BE9
:1004600062BB089582B36095682362BB0895F894D7
:02047000FFCFBC
:08047200746D616D3D39380025
:00000001FF
